:10000000B6010F29A400B7172730A3001030142021
:100010000330A300E8301420A30164301420A301AE
:100020000A30142024081F28A2002508A100240853
:10003000A000D8202008031DB713B71B0800303ECE
:10004000A7000813881388138316081388138813CE
:10005000860183122708B61848283A30A100983044
:10006000A3203330A6005B201330A1008830A320EA
:100070005B206430A2205B206430A220383047200F
:100080000C30472006304720B6142708482836147D
:10009000A600361C56288813033C031C5B285B20F3
:1000A0000730A100D030A320031408003614FE3C12
:1000B00003190A2988170817260886000000361039
:1000C00008133230A22003140800A000A00DA00DD8
:1000D000200D3839C1389F001330A1008830A3208B
:1000E0001F151F1971281E08A10083161E080A2952
:1000F00083178001840AFF3E031D79280A2903170C
:100100008D0083168C130C1483120C080A29031714
:100110008C0083168C130C1555308D00AA308D0081
:100120008C148C1891280C110A29A301A200FF300D
:10013000A207031CA307031C0A290330A100E63011
:10014000A3209728A101FC3EA000A109031CAE2812
:10015000FF300000A0070318A928A0076400A10F22
:10016000A8280800A101A301A2000230C128A20012
:100170000630C128A2000430C128A101A301A200B9
:100180000530A80023082102031DC82822082002E8
:10019000043003180130031902302805031DFF3015
:1001A0000A290038031DFF300405031DFF300A290A
:1001B000A501A4011030A600210DA40DA50D220853
:1001C000A4022308031C230FA5020318EE2822080B
:1001D000A40723080318230FA5070310A00DA10DE2
:1001E000A60BDC2820080A291030A800A101A001D4
:1001F000A70CA60C031C02292208A0072308031839
:10020000230FA107A10CA00CA50CA40CA80BF82887
:1002100024080A29831303138312640008000815B5
:1002200083160811FE3083128A01202001308A01D2
:1002300020209F01831607309F009F17811783128C
:100240000130A300F4308A019620FE308A0120207C
:1002500001308A01202020308A01202043308A0189
:10026000202061308A01202072308A0120206930EC
:100270008A01202063308A01202061308A012020F9
:1002800062308A01202061308A01202074308A0186
:10029000202074308A01202065308A0120207230AD
:1002A0008A01202069308A01202065308A012020BF
:1002B00020308A012020FE308A012020C0308A01AF
:1002C000202020308A01202020308A012020203068
:1002D0008A01202020308A01202020308A0120201D
:1002E00053308A0120206F308A0120206C308A012F
:1002F000202061308A01202072308A012020653060
:100300008A01202020308A01202020308A012020EC
:1003100020308A01202020308A01202020308A01CC
:1003200020200330A300E8308A019620203084008A
:1003300060308A017920A030840050308A01792011
:100340001030840060308A01782090308400603062
:100350008A0178200130F500F430EE000130EF0022
:10036000F4010130F600F001F10101308A017F2033
:10037000F30064007308003C8A110A12031DC729A8
:10038000D030EE000730EF008A110A12CA2914306B
:10039000EE00EF01F20164000B3072028A110A12C2
:1003A0000318DD298A150A124D240A308A01952086
:1003B000F20A8A110A12031DCB29F20164007308A4
:1003C000013C8A110A12031DEE29D030F0070730D4
:1003D0000318013EF1078A110A12F2296430F0076E
:1003E0000318F10A7008A0007108A100EA30A30008
:1003F00060308A01BA208A110A12031D0F2AF00107
:10040000F1010130A300F4308A019620081183160F
:10041000081183120330A300E8308A019620760881
:10042000A00075088A01BD20B2007308A00000304A
:100430008A01B220B4003208840034088A01D12035
:10044000B400B5006400340835048A110A12031997
:10045000302A0130A300F4308A0196207508F60096
:1004600064008A110A12051ACD2AF001F101640014
:10047000083075028A110A120318422AF50A8A11F5
:100480000A12442A0130F500F301F40164008A11D4
:100490000A12051ACD2AF40A0A308A01952064004E
:1004A000C83074028A110A12031CCB2A0130F300EF
:1004B0000130F500FE308A01202001308A01202021
:1004C00020308A01202020308A01202020308A011B
:1004D000202053308A01202045308A0120204C30D2
:1004E0008A01202045308A0120205A308A012020AC
:1004F00049308A0120204F308A0120204E308A0165
:10050000202041308A01202054308A0120204F30A1
:100510008A01202020308A01202020308A012020DA
:10052000FE308A012020C0308A01202020308A013C
:10053000202020308A0120204D308A0120204F3099
:100540008A01202044308A0120204F308A01202057
:1005500020308A01202043308A0120204F308A0138
:1005600020204E308A01202054308A01202049303A
:100570008A0120204E308A01202055308A01202017
:100580004F308A01202020308A0120200730A3002C
:10059000D0308A0196208A01462A64007308013C03
:1005A0008A110A12031D022B031701308D0001303E
:1005B00003138A0187206400043075028A110A122D
:1005C0000318E62AF50A8A110A12E82A0130F50012
:1005D000E830EE000330EF00F20164000B307202ED
:1005E0008A110A120318FF2A8A150A124D24643050
:1005F0008A019520F20A8A110A12031DED2A8A1136
:100600000A120F2B6430EE00EF01031701308D004A
:10061000003003138A0187208A150A124D246400D2
:100620000A3072028A110A12031C1A2BF2018A1173
:100630000A121B2BF20A03172A082C070313B20015
:1006400003172B080318013E2D070313B3000317EC
:100650002E080313B20703172F080318013E0313D4
:10066000B307031730080313B20703173108031841
:10067000013E0313B307031732080313B20703172E
:1006800033080318013E0313B30703173408031399
:10069000B207031735080318013E0313B307031706
:1006A00036080313B207031737080318013E031374
:1006B000B307031738080313B207031739080318E1
:1006C000013E0313B30703173A080313B2070317D6
:1006D0003B080318013E0313B3070317280803134D
:1006E000B207031729080318013E0313B3073208A2
:1006F000A0003308A1000A30A200A3018A01D8207B
:100700000317BE00031321080317BF0012081407C4
:100710000313B200031713080318013E1507031350
:10072000B300031716080313B207031717080318BB
:10073000013E0313B307031718080313B207031787
:1007400019080318013E0313B30703171A0803130C
:10075000B20703171B080318013E0313B30703175F
:100760001C080313B20703171D080318013E0313E7
:10077000B30703171E080313B20703171F08031854
:10078000013E0313B307031720080313B20703172F
:1007900021080318013E0313B307031722080313AC
:1007A000B207031723080318013E0313B307031707
:1007B00010080313B207031711080318013E0313AF
:1007C000B3073208A0003308A1000A30A200A30139
:1007D0008A01D8200317A600031321080317A700D6
:1007E00083160313220824078312B20083162308FA
:1007F0000318013E25078312B300831626088312CF
:10080000B207831627080318013E8312B307831625
:1008100028088312B207831629080318013E8312A1
:10082000B30783162A088312B20783162B0803180E
:10083000013E8312B30783162C088312B207831676
:100840002D080318013E8312B30783162E08831266
:10085000B20783162F080318013E8312B3078316CD
:1008600030088312B207831631080318013E831241
:10087000B307831632088312B207831633080318AE
:10088000013E8312B307831620088312B207831632
:1008900021080318013E8312B3073208A000330871
:1008A000A1000A30A200A3018A01D8208316B60055
:1008B000831221088316B700831256085807B20026
:1008C00057080318013E5907B3005A08B2075B08DE
:1008D0000318013EB3075C08B2075D080318013E28
:1008E000B3075E08B2075F080318013EB30760084C
:1008F000B20761080318013EB3076208B207630834
:100900000318013EB3076408B20765080318013EE7
:10091000B3076608B20767080318013EB307540817
:10092000B20755080318013EB3073208A000330888
:10093000A1000A30A200A3018A01D820EA00210800
:10094000EB003E084007B2003F080318013E410794
:10095000B3004208B20743080318013EB307440836
:10096000B20745080318013EB3074608B207470817
:100970000318013EB3074808B20749080318013EAF
:10098000B3074A08B2074B080318013EB3074C08E7
:10099000B2074D080318013EB3074E08B2074F08CF
:1009A0000318013EB3073C08B2073D080318013E97
:1009B000B3073208A0003308A1000A30A200A30147
:1009C0008A01D820D2002108D30083163A083C07B8
:1009D0008312B20083163B080318013E3D078312C1
:1009E000B30083163E088312B20783163F0803182C
:1009F000013E8312B307831640088312B2078316A1
:100A000041080318013E8312B3078316420883127C
:100A1000B207831643080318013E8312B3078316F7
:100A200044088312B207831645080318013E831257
:100A3000B307831646088312B207831647080318C4
:100A4000013E8312B307831648088312B207831648
:100A500049080318013E8312B30783164A0883121C
:100A6000B20783164B080318013E8312B30783169F
:100A700038088312B207831639080318013E83121F
:100A8000B3073208A0003308A1000A30A200A30176
:100A90008A01D8208316CE00831221088316CF0046
:100AA000520854078312B200831653080318013EFC
:100AB00055078312B300831656088312B2078316B4
:100AC00057080318013E8312B30783165808831290
:100AD000B207831659080318013E8312B307831621
:100AE0005A088312B20783165B080318013E83126B
:100AF000B30783165C088312B20783165D080318D8
:100B0000013E8312B30783165E088312B207831671
:100B10005F080318013E8312B3078316600883122F
:100B2000B207831661080318013E8312B3078316C8
:100B300062088312B207831663080318013E83120A
:100B4000B307831650088312B2078316510803189F
:100B5000013E8312B3073208A0003308A1000A3017
:100B6000A200A3018A01D8208316E600831221087F
:100B70008316E700640083127508013C8A110A128B
:100B8000031D4D2E03173E080313A60003173F084D
:100B90000313A7003030A200A3018A01F420B200A1
:100BA0002508B3003208A0003308A1000A30A200D3
:100BB000A3018A01D820B2002108B3003208A600A0
:100BC0003308A7000B30A200A3018A01F420031709
:100BD000BE00031325080317BF00FE3003138A016C
:100BE000202001308A01202054308A0120206530E5
:100BF0008A0120206E308A01202073308A01202053
:100C000069308A0120206F308A0120206E308A01ED
:100C1000202065308A01202020308A0120204D309C
:100C20008A0120206F308A01202064308A01202030
:100C300075308A0120206C308A0120206F308A01B3
:100C40002020FE308A012020C0308A012020203060
:100C50008A01202020308A01202020308A01202093
:100C600003173F080313A50003173E0803138A0167
:100C7000022020308A01202020308A0120206D307F
:100C80008A01202056308A0120206F08A3006E08B8
:100C90008A0196208A150A124B2C64007508023CC2
:100CA0008A110A12031DDF2E031726080313A6005C
:100CB000031727080313A7003030A200A3018A01FD
:100CC000F420B2002508B3003208A0003308A100C8
:100CD0000A30A200A3018A01D820B2002108B30083
:100CE0003208A6003308A7000B30A200A3018A0136
:100CF000F4200317A600031325080317A700FE30EE
:100D000003138A01202001308A01202054308A01F7
:100D1000202065308A0120206E308A012020733027
:100D20008A01202069308A0120206F308A0120202A
:100D30006E308A01202065308A01202020308A010F
:100D4000202042308A01202061308A012020743026
:100D50008A01202074308A0120202E308A01202030
:100D600020308A012020FE308A012020C0308A01F4
:100D7000202020308A01202020308A0120202030AD
:100D80008A012020031727080313A500031726084C
:100D900003138A01022020308A01202020308A019A
:100DA00020206D308A01202056308A0120206F08D3
:100DB000A3006E088A0196208A150A124B2C640043
:100DC0007508033C8A110A12031DEF2F831636089B
:100DD0008312A000831637088312A100A3010530F7
:100DE0008A01B7208A110A12031D812F053083164C
:100DF00036028312B2000030031C013E8316370214
:100E00008312B3003208A6003308A700F430A20012
:100E10000130A3008A01F420B2002508B300320893
:100E2000A0003308A1000B30A200A3018A01D82042
:100E3000B2002108B300F43032078316B600013047
:100E40000318013E831233078316B700FE30831266
:100E50008A01202001308A01202043308A0120208D
:100E60006F308A01202072308A01202072308A017E
:100E7000202065308A0120206E308A0120207430C5
:100E80008A01202065308A01202020308A0120201C
:100E90004D308A0120206F308A01202064308A0181
:100EA000202075308A0120206C308A0120206F308C
:100EB0008A012020FE308A012020C0308A012020B3
:100EC00020308A01202020308A01202020308A0111
:100ED0002020831637088312A50083163608831254
:100EE0008A01022020308A01202020308A0120201F
:100EF0006D308A01202041308A0120208A110A1297
:100F0000E72FFE308A01202001308A012020433063
:100F10008A0120206F308A01202072308A0120202F
:100F200072308A01202065308A0120206E308A01CB
:100F3000202074308A01202065308A012020203052
:100F40008A0120204D308A0120206F308A01202024
:100F500064308A01202075308A0120206C308A019B
:100F600020206F308A012020FE308A012020C030EE
:100F70008A01202020308A01202020308A01202070
:100F800020308A01202020308A0120203C308A0134
:100F9000202020308A01202035308A012020303066
:100FA0008A01202030308A01202020308A01202030
:100FB00020308A0120206D308A01202041308A01B2
:100FC000202020308A01202020308A0120206F0834
:100FD000A3006E088A0196208A150A124B2C640021
:100FE0007508043C8A150A12031DFC296A08A00032
:100FF0006B08A1005308A30052088A01B7208A1584
:101000000A12031D00296A08A0006B08A100A301B1
:1010100005308A01B7208A150A12031D972805306A
:101020006A02B2000030031C013E6B02B3003208BA
:10103000A6003308A700F430A2000130A3008A0103
:10104000F420B2002508B3003208A0003308A10044
:101050000B30A200A3018A01D820B2002108B300FE
:10106000F4303207EA0001300318013E3307EB0089
:10107000FE308A01202001308A01202043308A017D
:1010800020206F308A01202072308A0120207230A7
:101090008A01202065308A0120206E308A012020BC
:1010A00074308A01202065308A01202020308A0196
:1010B000202042308A01202061308A0120207430B3
:1010C0008A01202074308A0120202E308A012020BD
:1010D000FE308A012020C0308A01202053308A014E
:1010E000202063308A01202061308A012020723064
:1010F0008A01202069308A01202063308A01202063
:1011000061308A01202020308A0120206B08A50050
:101110006A088A01022020308A0120206D308A016D
:10112000202041308A0120208A150A12FD28FE3035
:101130008A01202001308A01202043308A012020AA
:101140006F308A01202072308A01202072308A019B
:10115000202065308A0120206E308A0120207430E2
:101160008A01202065308A01202020308A01202039
:1011700042308A01202061308A01202074308A01A7
:10118000202074308A0120202E308A012020FE3059
:101190008A012020C0308A01202053308A0120207B
:1011A00063308A01202061308A01202072308A0158
:1011B000202069308A01202063308A01202061309C
:1011C0008A01202020308A0120203C308A01202002
:1011D00020308A01202035308A01202030308A01D9
:1011E000202030308A01202020308A0120206D30DC
:1011F0008A01202041308A0120208A150A12F42910
:101200005208A0005308A100A30105308A01B720AD
:101210008A150A12031D912905305202B2000030CE
:10122000031C013E5302B3003208A6003308A70096
:10123000F430A2000130A3008A01F420B200250896
:10124000B3003208A0003308A1000B30A200A301B4
:101250008A01D820B2002108B300F4303207D2004E
:1012600001300318013E3307D300FE308A012020ED
:1012700001308A01202043308A0120206F308A010A
:10128000202072308A01202072308A0120206530AF
:101290008A0120206E308A01202074308A012020AB
:1012A00065308A01202020308A01202042308A01C6
:1012B000202061308A01202074308A01202074307F
:1012C0008A0120202E308A012020FE308A01202031
:1012D000C0308A01202043308A01202061308A01F9
:1012E000202072308A01202069308A01202063305A
:1012F0008A01202061308A01202020308A012020AC
:101300005308A50052088A01022020308A012020BB
:101310006D308A01202041308A0120208A150A126E
:10132000F429FE308A01202001308A012020433038
:101330008A0120206F308A01202072308A0120200B
:1013400072308A01202065308A0120206E308A01A7
:10135000202074308A01202065308A01202020302E
:101360008A01202042308A01202061308A01202019
:1013700074308A01202074308A0120202E308A01A6
:101380002020FE308A012020C0308A0120204330F6
:101390008A01202061308A01202072308A012020B9
:1013A00069308A01202063308A01202061308A015F
:1013B000202020308A0120203C308A01202020304B
:1013C0008A01202035308A01202030308A012020F7
:1013D00030308A01202020308A0120206D308A019F
:1013E000202041308A0120206F08A3006E088A0166
:1013F00096208A150A124B2C64007508053C8A1544
:101400000A12031D762A83164E088312A60083163D
:101410004F088312A7003030A200A3018A01F420F4
:101420008316CE00831225088316CF00FE30831268
:101430008A01202001308A01202020308A012020CA
:1014400020308A01202020308A01202054308A0157
:10145000202065308A0120206E308A0120207330E0
:101460008A01202069308A0120206F308A012020E3
:101470006E308A01202065308A01202020308A01C8
:10148000202056308A01202030308A012020203050
:101490008A012020FE308A012020C0308A012020CD
:1014A00020308A01202020308A01202020308A012B
:1014B000202083164F088312A50083164E0883123E
:1014C0008A01022020308A01202020308A01202039
:1014D0006D308A01202056308A0120206F08A30039
:1014E0006E088A0196208A150A124B2C6400750832
:1014F000063C8A150A12031DFC2A8316660883120D
:10150000A600831667088312A7003030A200A3014B
:101510008A01F420B2002508B3003208A000330885
:10152000A1000A30A200A3018A01D8208316E60098
:10153000831221088316E700FE3083128A012020DF
:1015400001308A01202020308A01202020308A01A9
:10155000202020308A01202054308A01202065304C
:101560008A0120206E308A01202073308A012020D9
:1015700069308A0120206F308A0120206E308A0174
:10158000202065308A01202020308A01202056301A
:101590008A01202031308A01202020308A01202039
:1015A000FE308A012020C0308A01202020308A01AC
:1015B000202020308A01202020308A01202083161C
:1015C00067088312A5008316660883128A01022029
:1015D00020308A01202020308A0120206D308A01AD
:1015E000202056308A0120206F08A3006E088A014F
:1015F00096208A150A124B2C64007508073C8A1540
:101600000A12031DA52B83164E088312A60083160B
:101610004F088312A7003030A200A3018A01F420F2
:10162000B2002508B3003208A0003308A1000A3038
:10163000A200A3018A01D8208316CE0083122108BC
:101640008316CF00831203173E080313A600031767
:101650003F080313A7003030A200A3018A01F42041
:10166000B2002508B3003208A0003308A1000A30F8
:10167000A200A3018A01D820B2002108B3003208D9
:10168000A6003308A7000B30A200A3018A01F420B2
:101690000317BE00031325080317BF00FE30031312
:1016A0008A01202001308A01202020308A01202058
:1016B00056308A0120204D308A01202020308A01B6
:1016C000202003173F080313A50003173E08031348
:1016D0008A01022020308A01202020308A01202027
:1016E0006D308A01202056308A012020FE308A0188
:1016F0002020C0308A01202020308A01202056304E
:101700008A01202030308A01202020308A012020C8
:1017100083164F088312A50083164E0883128A0190
:10172000022020308A01202020308A0120206D30C4
:101730008A01202056308A0120206F08A3006E08FD
:101740008A0196208A150A124B2C64007508083C01
:101750008A150A12031D4B2C831666088312A600F5
:10176000831667088312A7003030A200A3018A0104
:10177000F420B2002508B3003208A0003308A1000D
:101780000A30A200A3018A01D8208316E600831242
:1017900021088316E7008312031726080313A60007
:1017A000031727080313A7003030A200A3018A0102
:1017B000F420B2002508B3003208A0003308A100CD
:1017C0000A30A200A3018A01D820B2002108B30088
:1017D0003208A6003308A7000B30A200A3018A013B
:1017E000F4200317A600031325080317A700FE30F3
:1017F00003138A01202001308A01202020308A0131
:10180000202056308A01202042308A0120202030BA
:101810008A012020031727080313A50003172608B1
:1018200003138A01022020308A01202020308A01FF
:1018300020206D308A01202056308A012020FE3081
:101840008A012020C0308A01202020308A012020F7
:1018500056308A01202031308A01202020308A0130
:101860002020831667088312A5008316660883125A
:101870008A01022020308A01202020308A01202085
:101880006D308A01202056308A0120206F08A30085
:101890006E088A0196208A01DE2905308A016520BA
:1018A000EC002108ED000310720D283E8400831720
:1018B0006C088000840A6D088000831306308A015A
:1018C0006520EC002108ED000310720D103E84002D
:1018D00083176C088000840A6D088000831304302D
:1018E0008A016520EC002108ED000310720DA03E76
:1018F00084006C088000840A6D08800003308A012F
:101900006520EC002108ED000310720D543E8400A8
:101910006C088000840A6D08800002308A0165200E
:10192000EC002108ED000310720D3C3E84006C08B1
:101930008000840A6D08800000308A016520EC0078
:101940002108ED000310720DB83E84006C08800081
:10195000840A6D08800001308A016520EC002108AE
:10196000ED000310720DD03E84006C088000840AE4
:061970006D088000080074
:02400E00753FFC
:024202000000BA
:00000001FF
