:10000000B2011329A400B3172730A3001030142025
:100010000330A300E8301420A30164301420A301AE
:100020000A30142024081F28A2002508A100240853
:10003000A000DC202008031DB313B31B0800303ED2
:10004000A7008611061106118316861106110611E6
:100050000F30860583122708B2184B283A30A100CA
:10006000FC30B0203330A6005F201030A100683093
:10007000B0205F206430AF202230A6005F202830FF
:100080004A200C304A2001304A2006304A20B2145F
:1000900027084B283214A600321C59280611033CAD
:1000A000031C5E285E200730A100D030B02003146E
:1000B00008003214FE3C03190E290615321C3210BA
:1000C00086150F3086052608F03986048611A60E9F
:1000D00032185F283230AF2003140800A000A00DB2
:1000E000A00D200D3839C1389F001330A100883091
:1000F000B0201F151F197A281E08A10083161E089C
:100100000E2983178001840AFF3E031D82280E29D1
:10011000031783168C010C1483120C0803178D0A25
:100120000E29030103178C0083168C010C15553022
:100130008D00AA308D008C148C189C280C11831211
:100140008D0A0E29A301A200FF30A207031CA307FA
:10015000031C0E290330A100E630B020A428A10121
:10016000FC3EA000A109031CBB28FF300000A00733
:100170000318B628A0076400A10FB5280800A20044
:100180000630C528A2000430C528A8002308210293
:10019000031DCC2822082002043003180130031963
:1001A00002302805031DFF300E290038031DFF30E3
:1001B0000405031DFF300E29A501A4011030A6007F
:1001C000210DA40DA50D2208A4022308031C230F52
:1001D000A5020318F2282208A40723080318230FF6
:1001E000A5070310A00DA10DA60BE02820080E29DD
:1001F0001030A800A101A001A70CA60C031C062921
:100200002208A00723080318230FA107A10CA00CA4
:10021000A50CA40CA80BFC2824080E298313031397
:10022000831264000800081583160811FE3083123B
:100230008A01202001308A0120209F018316073087
:100240009F009F17811783120130A300F4308A01A9
:10025000A320FE308A01202001308A0120202D3089
:100260008A0120202D308A0120202D308A01202073
:100270002D308A0120202D308A0120202D308A0146
:1002800020202D308A0120202D308A0120202D3081
:100290008A0120202D308A0120202D308A01202043
:1002A0002D308A0120202D308A0120202D308A0116
:1002B00020202D308A0120202D308A012020FE3080
:1002C0008A012020C0308A01202020308A0120208D
:1002D00020308A01202052308A01202045308A01B6
:1002E000202047308A01202055308A0120204C30C0
:1002F0008A01202041308A01202044308A012020B8
:100300004F308A01202052308A01202020308A017B
:10031000202044308A01202045308A0120202030CE
:100320008A01202020308A0120200330A3002030C1
:100330008A01A320FE308A01202001308A0120207A
:1003400020308A01202020308A01202052308A016A
:10035000202045308A01202047308A012020553056
:100360008A0120204C308A01202041308A0120203F
:1003700044308A0120204F308A01202052308A01E7
:10038000202020308A01202044308A01202045305E
:100390008A01202020308A01202020308A0120205C
:1003A000FE308A012020C0308A01202020308A01BE
:1003B000202020308A01202043308A012020413033
:1003C0008A01202052308A01202047308A012020D3
:1003D00041308A01202020308A01202020308A01EB
:1003E000202053308A0120204F308A0120204C30B9
:1003F0008A01202041308A01202052308A012020A9
:1004000020308A01202020308A0120200330A300E0
:1004100020308A01A320FE308A01202001308A0189
:10042000202020308A01202020308A0120204330E3
:100430008A01202041308A01202052308A01202068
:1004400047308A01202041308A01202020308A0153
:10045000202020308A01202053308A0120204F3074
:100460008A0120204C308A01202041308A0120203E
:1004700052308A01202020308A01202020308A0139
:100480002020FE308A012020C0308A0120202D301B
:100490008A0120202D308A0120202D308A01202041
:1004A0002D308A0120202D308A0120202D308A0114
:1004B00020202D308A0120202D308A0120202D304F
:1004C0008A0120202D308A0120202D308A01202011
:1004D0002D308A0120202D308A0120202D308A01E4
:1004E00020202D308A0120202D308A012020033049
:1004F000A30020308A01A320FE308A012020013091
:100500008A01202020308A01202020308A012020EA
:1005100020308A01202020308A01202042308A01A8
:10052000202069308A0120206F308A012020453048
:100530008A01202041308A01202020308A01202099
:1005400073308A01202072308A0120206C308A01A9
:10055000202020308A01202020308A0120202030D5
:100560008A012020FE308A012020C0308A0120200C
:1005700054308A0120206F308A01202072308A0195
:10058000202072308A01202065308A0120207330BB
:100590008A01202020308A01202041308A01202039
:1005A0002E308A0120204D308A0120202E308A01F1
:1005B000202020308A01202020308A012020203075
:1005C0008A01202020308A01202020308A0120202A
:1005D0000330A300E8308A01A3202030840060307B
:1005E0008A018220A030840050308A01822010309D
:1005F000840060308A0181209030840060308A015C
:10060000812003170130AD0083160313F430EA0094
:100610000130EB0083120317AC010130AE00A801DA
:10062000A90101308D0003138A0188200317AB0054
:1006300064002B08003C8A110A120313031D292BA6
:100640008316E830EA000330EB0083128A110A12A5
:100650002E2B83161430EA00EB0183120317AA0134
:10066000031364000B3003172A028A110A120313C2
:100670000318472B8A150A127C260A308A01A22009
:100680000317AA0A8A110A120313031D312B031739
:10069000AA010313640003172B08013C8A110A12F4
:1006A0000313031D5E2B0317E830A807033003185C
:1006B000013EA90703138A110A12642B0317643041
:1006C000A8070318A90A0313031728080313A00097
:1006D000031729080313A100EA30A30060308A0140
:1006E000C2208A110A12031D872B0317A801A90132
:1006F00003130130A300F4308A01A32008118316EC
:10070000081183120330A300E8308A01A3200317E5
:100710002E082D02031DFF3083160313EC008312F5
:1007200003172B08003C031DFF30FF3A8316031309
:10073000EE006C088312840083166E0883128A010F
:10074000D5208316EE00EF0064006E086F048A1156
:100750000A1283120319B52B0130A300F4308A0169
:10076000A32003172D08AE00031364008A110A1298
:10077000051A602C0317A801A901640008302D0296
:100780008A110A1203130318CB2B0317AD0A0313A4
:100790008A110A12CF2B03170130AD000313031780
:1007A000AB01AC01031364008A110A12051A602C14
:1007B0000317AC0A0A3003138A01A2206400C83070
:1007C00003172C028A110A120313031C5E2C031751
:1007D0000130AB000130AD00FE3003138A01202050
:1007E00001308A01202020308A01202020308A0117
:1007F000202020308A01202020308A012020533000
:100800008A01202045308A0120204C308A01202096
:1008100045308A01202043308A01202043308A015C
:10082000202049308A0120204F308A0120204E307C
:100830008A01202020308A01202020308A012020B7
:1008400020308A012020FE308A012020C0308A0119
:10085000202020308A01202020308A0120204D30A5
:100860008A0120204F308A01202044308A01202034
:100870004F308A01202020308A01202043308A0115
:1008800020204F308A0120204E308A012020543011
:100890008A01202049308A0120204E308A01202000
:1008A00055308A0120204F308A01202020308A01D3
:1008B00020200730A300D0308A01A3208A01D32B47
:1008C000640003172B08013C8A110A120313031D4D
:1008D000A52C031701308D00013003138A019220EB
:1008E0006400043003172D028A110A12031303183F
:1008F0007F2C0317AD0A03138A110A12832C0317E6
:100900000130AD0003138316F430EA000130EB0030
:1009100083120317AA01031364000B3003172A0282
:100920008A110A1203130318A22C8A150A127C26B4
:1009300064308A01A2200317AA0A8A110A1203133B
:10094000031D8C2C8A110A12B42C83166430EA0021
:10095000EB018312031701308D00003003138A016D
:1009600092208A150A127C2664000A3003172A0294
:100970008A110A120313031CC32C0317AA010313C1
:100980008A110A12C62C0317AA0A031303171208A6
:10099000140783160313EC008312031713080318BC
:1009A000013E150783160313ED0083120317160883
:1009B00083160313EC078312031717080318013E6D
:1009C00083160313ED078312031718088316031306
:1009D000EC078312031719080318013E831603134B
:1009E000ED07831203171A0883160313EC0783120B
:1009F00003171B080318013E83160313ED07831228
:100A000003171C0883160313EC07831203171D0832
:100A10000318013E83160313ED07831203171E0804
:100A200083160313EC07831203171F080318013EF4
:100A300083160313ED07831203172008831603138D
:100A4000EC078312031721080318013E83160313D2
:100A5000ED0783120317220883160313EC07831292
:100A6000031723080318013E83160313ED078312AF
:100A70000317100883160313EC07831203171108DA
:100A80000318013E83160313ED076C088312A000C0
:100A900083166D088312A1000A30A200A3018A0107
:100AA000DC200317A600031321080317A7008316F1
:100AB000031352085407EC0053080318013E55076E
:100AC000ED005608EC0757080318013EED075808DB
:100AD000EC0759080318013EED075A08EC075B08BC
:100AE0000318013EED075C08EC075D080318013EA2
:100AF000ED075E08EC075F080318013EED0760088C
:100B0000EC0761080318013EED076208EC07630873
:100B10000318013EED075008EC0751080318013E89
:100B2000ED076C088312A00083166D088312A100E4
:100B30000A30A200A3018A01DC208316E60083129A
:100B400021088316E70083126A086C078316EC00FD
:100B500083126B080318013E6D078316ED008312A4
:100B60006E088316EC0783126F080318013E831684
:100B7000ED07831270088316EC07831271080318BF
:100B8000013E8316ED07831272088316EC07831269
:100B900073080318013E8316ED0783127408831649
:100BA000EC07831275080318013E8316ED078312C4
:100BB00076088316EC07831277080318013E831624
:100BC000ED07831278088316EC078312790803185F
:100BD000013E8316ED0783127A088316EC07831211
:100BE0007B080318013E8316ED07831268088316FD
:100BF000EC07831269080318013E8316ED076C08A1
:100C00008312A00083166D088312A1000A30A2008F
:100C1000A3018A01DC20FE002108FF0052085407CE
:100C20008316EC00831253080318013E5507831600
:100C3000ED00831256088316EC0783125708031839
:100C4000013E8316ED07831258088316EC078312C2
:100C500059080318013E8316ED0783125A088316BC
:100C6000EC0783125B080318013E8316ED0783121D
:100C70005C088316EC0783125D080318013E831697
:100C8000ED0783125E088316EC0783125F080318D2
:100C9000013E8316ED07831260088316EC0783126A
:100CA00061080318013E8316ED078312620883165C
:100CB000EC07831263080318013E8316ED078312C5
:100CC00050088316EC07831251080318013E83165F
:100CD000ED076C088312A00083166D088312A10033
:100CE0000A30A200A3018A01DC20E6002108E70007
:100CF0003A083C078316EC0083123B080318013EB8
:100D00003D078316ED0083123E088316EC0783121D
:100D10003F080318013E8316ED078312400883162F
:100D2000EC07831241080318013E8316ED07831276
:100D300042088316EC07831243080318013E83160A
:100D4000ED07831244088316EC0783124508031845
:100D5000013E8316ED07831246088316EC078312C3
:100D600047080318013E8316ED07831248088316CF
:100D7000EC07831249080318013E8316ED0783121E
:100D80004A088316EC0783124B080318013E8316AA
:100D9000ED07831238088316EC078312390803180D
:100DA000013E8316ED076C088312A00083166D08C0
:100DB0008312A1000A30A200A3018A01DC20CE0028
:100DC0002108CF00831622082407EC00230803180B
:100DD000013E2507ED002608EC0727080318013E11
:100DE000ED072808EC0729080318013EED072A083B
:100DF000EC072B080318013EED072C08EC072D0823
:100E00000318013EED072E08EC072F080318013EDA
:100E1000ED073008EC0731080318013EED073208F2
:100E2000EC0733080318013EED072008EC07210802
:100E30000318013EED076C088312A00083166D08AD
:100E40008312A1000A30A200A3018A01DC208316CC
:100E5000B600831221088316B7003A083C07EC005D
:100E60003B080318013E3D07ED003E08EC073F0834
:100E70000318013EED074008EC0741080318013E46
:100E8000ED074208EC0743080318013EED0744084C
:100E9000EC0745080318013EED074608EC07470834
:100EA0000318013EED074808EC0749080318013E06
:100EB000ED074A08EC074B080318013EED07380818
:100EC000EC0739080318013EED076C088312A000F7
:100ED00083166D088312A1000A30A200A3018A01C3
:100EE000DC208316CE00831221088316CF00640015
:100EF000831203172D08013C8A150A120313031DE0
:100F00001628031726080313A60003172708031340
:100F1000A7003030A200A3018A01F8208316EC005C
:100F2000831225088316ED006C088312A000831637
:100F30006D088312A1000A30A200A3018A01DC20FF
:100F40008316EC00831221088316ED006C088312CF
:100F5000A60083166D088312A7000B30A200A30120
:100F60008A01F8200317A600031325080317A7001A
:100F7000FE3003138A01202001308A0120205430E2
:100F80008A01202065308A0120206E308A012020CD
:100F900073308A01202069308A0120206F308A0155
:100FA00020206E308A01202020308A0120205030FD
:100FB0008A01202061308A0120206E308A012020A1
:100FC00065308A0120206C308A012020FE308A01A1
:100FD0002020C0308A01202020308A0120202030AB
:100FE0008A01202020308A012020031727080313BC
:100FF000A5000317260803138A01022020308A0166
:10100000202020308A0120206D308A012020563097
:101010008A01202083166B088312A30083166A08B6
:1010200083128A01A3208A150A127A2E64000317FC
:101030002D08023C8A150A120313031DB4288316D7
:1010400066088312A600831667088312A700303053
:10105000A200A3018A01F8208316EC008312250860
:101060008316ED006C088312A00083166D088312AE
:10107000A1000A30A200A3018A01DC208316EC0043
:10108000831221088316ED006C088312A6008316D4
:101090006D088312A7000B30A200A3018A01F8207B
:1010A0008316E600831225088316E700FE308312BC
:1010B0008A01202001308A01202054308A0120201A
:1010C00065308A0120206E308A01202073308A0129
:1010D000202069308A0120206F308A0120206E3064
:1010E0008A01202020308A01202042308A012020DD
:1010F00061308A01202074308A0120202E308A013C
:10110000202020308A012020FE308A012020C0309B
:101110008A01202020308A01202020308A012020CE
:1011200020308A012020831667088312A5008316C9
:10113000660883128A01022020308A012020203094
:101140008A0120206D308A01202056308A0120201B
:1011500083166B088312A30083166A0883128A0120
:10116000A3208A150A127A2E640003172D08033C67
:101170008A150A120313031DCC297E08A0007F08DC
:10118000A100A30105308A01BF208A150A12031DA0
:101190005A2905307E028316EC000030031C013E04
:1011A00083127F028316ED006C088312A60083165B
:1011B0006D088312A700F430A2000130A3008A0159
:1011C000F8208316EC00831225088316ED006C08C6
:1011D0008312A00083166D088312A1000B30A200B9
:1011E000A3018A01DC208316EC00831221088316F8
:1011F000ED00F4306C078312FE0001300318013E4D
:1012000083166D078312FF00FE308A012020013013
:101210008A01202043308A0120206F308A0120205B
:1012200072308A01202072308A01202069308A01C0
:10123000202065308A0120206E308A012020743001
:101240008A01202065308A01202020308A01202058
:1012500050308A01202061308A0120206E308A01BE
:10126000202065308A0120206C308A012020FE3049
:101270008A012020C0308A01202020308A012020CD
:1012800020308A01202020308A0120207F08A500FC
:101290007E088A01022020308A01202020308A0125
:1012A00020206D308A01202041308A0120208A15BB
:1012B0000A12C029FE308A01202001308A01202034
:1012C00043308A0120206F308A01202072308A0149
:1012D000202072308A01202069308A012020653068
:1012E0008A0120206E308A01202074308A0120205B
:1012F00065308A01202020308A01202050308A0168
:10130000202061308A0120206E308A012020653043
:101310008A0120206C308A012020FE308A012020A2
:10132000C0308A01202020308A01202020308A010C
:10133000202020308A01202020308A0120203C30CB
:101340008A01202020308A01202035308A01202087
:1013500030308A01202030308A01202020308A015C
:10136000202020308A0120206D308A012020413049
:101370008A01202020308A01202020308A0120206C
:1013800083166B088312A30083166A0883128A01EE
:10139000A3208A150A127A2E640003172D08043C34
:1013A0008A150A120313031DF12B6608A0006708B3
:1013B000A1004F08A3004E088A01BF208A150A1217
:1013C000031DE52A6608A0006708A100A3010530F7
:1013D0008A01BF208A150A12031D822A053066027F
:1013E0008316EC000030031C013E83126702831653
:1013F000ED006C088312A60083166D088312A70007
:10140000F430A2000130A3008A01F8208316EC001A
:10141000831225088316ED006C088312A000831642
:101420006D088312A1000B30A200A3018A01DC2009
:101430008316EC00831221088316ED00F4306C074C
:101440008312E60001300318013E83166D078312F4
:10145000E700FE308A01202001308A01202043303D
:101460008A0120206F308A01202072308A012020DA
:1014700072308A01202069308A01202065308A017B
:1014800020206E308A01202074308A0120206530AF
:101490008A01202020308A01202042308A01202029
:1014A00061308A01202074308A0120202E308A0188
:1014B0002020FE308A012020C0308A0120204330C5
:1014C0008A01202041308A01202052308A012020C8
:1014D00047308A01202041308A01202020308A01B3
:1014E00020206708A50066088A01022020308A01B2
:1014F00020206D308A01202041308A0120208A1569
:101500000A12E22AFE308A01202001308A012020BE
:1015100043308A0120206F308A01202072308A01F6
:10152000202072308A01202069308A012020653015
:101530008A0120206E308A01202074308A01202008
:1015400065308A01202020308A01202042308A0123
:10155000202061308A01202074308A0120202E3022
:101560008A012020FE308A012020C0308A012020FC
:1015700043308A01202041308A01202052308A01E4
:10158000202047308A01202041308A01202020304D
:101590008A0120203C308A01202020308A0120202E
:1015A00035308A01202030308A01202030308A01F5
:1015B000202020308A0120206D308A0120204130F7
:1015C0008A0120208A150A12E52B4E08A0004F0838
:1015D000A100A30105308A01BF208A150A12031D4C
:1015E000852B05304E028316EC000030031C013EB3
:1015F00083124F028316ED006C088312A600831637
:101600006D088312A700F430A2000130A3008A0104
:10161000F8208316EC00831225088316ED006C0871
:101620008312A00083166D088312A1000B30A20064
:10163000A3018A01DC208316EC00831221088316A3
:10164000ED00F4306C078312CE0001300318013E28
:1016500083166D078312CF00FE308A0120200130EF
:101660008A01202043308A0120206F308A01202007
:1016700072308A01202072308A01202069308A016C
:10168000202065308A0120206E308A0120207430AD
:101690008A01202065308A01202020308A01202004
:1016A00042308A01202061308A01202074308A0172
:1016B00020202E308A012020FE308A012020C030D8
:1016C0008A01202043308A01202041308A012020D5
:1016D00052308A01202047308A01202041308A017F
:1016E000202020308A0120204F08A5004E088A01C2
:1016F000022020308A0120206D308A0120204130D4
:101700008A0120208A150A12E52BFE308A0120204A
:1017100001308A01202043308A0120206F308A0165
:10172000202072308A01202072308A012020693006
:101730008A01202065308A0120206E308A01202015
:1017400074308A01202065308A01202020308A01EF
:10175000202042308A01202061308A01202074300C
:101760008A0120202E308A012020FE308A0120208C
:10177000C0308A01202043308A01202041308A0174
:10178000202052308A01202047308A012020413019
:101790008A01202020308A0120203C308A0120202C
:1017A00020308A01202035308A01202030308A0103
:1017B000202030308A01202020308A0120206D3006
:1017C0008A01202041308A01202083166B08831271
:1017D000A30083166A0883128A01A3208A150A12BD
:1017E0007A2E640003172D08053C8A150A1203138C
:1017F000031D6E2C831636088312A6008316370845
:101800008312A7003030A200A3018A01F8208316BA
:10181000B600831225088316B700FE3083128A01B2
:10182000202001308A01202020308A012020203011
:101830008A01202020308A01202054308A01202073
:1018400065308A0120206E308A01202073308A01A1
:10185000202069308A0120206F308A0120206E30DC
:101860008A01202020308A01202056308A01202041
:1018700030308A01202020308A012020FE308A0169
:101880002020C0308A01202020308A0120202030F2
:101890008A01202020308A012020831637088312F5
:1018A000A5008316360883128A01022020308A019F
:1018B000202020308A0120206D308A0120205630DF
:1018C0008A01202083166B088312A30083166A08FE
:1018D00083128A01A3208A150A127A2E6400031744
:1018E0002D08063C8A150A120313031DFD2C8316CE
:1018F0004E088312A60083164F088312A7003030CB
:10190000A200A3018A01F8208316EC0083122508A7
:101910008316ED006C088312A00083166D088312F5
:10192000A1000A30A200A3018A01DC208316CE00A8
:10193000831221088316CF00FE3083128A012020F3
:1019400001308A01202020308A01202020308A01A5
:10195000202020308A01202054308A012020653048
:101960008A0120206E308A01202073308A012020D5
:1019700069308A0120206F308A0120206E308A0170
:10198000202020308A01202056308A01202031304A
:101990008A01202020308A012020FE308A01202068
:1019A000C0308A01202020308A01202020308A0186
:1019B000202020308A01202083164F088312A500A2
:1019C00083164E0883128A01022020308A012020CB
:1019D00020308A0120206D308A01202056308A0173
:1019E000202083166B088312A30083166A088312D3
:1019F0008A01A3208A150A127A2E640003172D0883
:101A0000073C8A150A120313031DBE2D83163608E0
:101A10008312A600831637088312A7003030A20075
:101A2000A3018A01F8208316EC008312250883168F
:101A3000ED006C088312A00083166D088312A100CC
:101A40000A30A200A3018A01DC208316B6008312AB
:101A500021088316B7008312031726080313A60074
:101A6000031727080313A7003030A200A3018A013F
:101A7000F8208316EC00831225088316ED006C080D
:101A80008312A00083166D088312A1000A30A20001
:101A9000A3018A01DC208316EC008312210883163F
:101AA000ED006C088312A60083166D088312A70050
:101AB0000B30A200A3018A01F8200317A60003132C
:101AC00025080317A700FE3003138A0120200130E8
:101AD0008A01202020308A01202056308A012020CF
:101AE0004D308A01202020308A012020031727084A
:101AF0000313A5000317260803138A0102202030D0
:101B00008A01202020308A0120206D308A01202087
:101B100056308A012020FE308A012020C0308A0100
:101B2000202020308A01202056308A0120203030A9
:101B30008A01202020308A01202083163708831252
:101B4000A5008316360883128A01022020308A01FC
:101B5000202020308A0120206D308A01202056303C
:101B60008A01202083166B088312A30083166A085B
:101B700083128A01A3208A150A127A2E64000317A1
:101B80002D08083C8A150A120313031D7A2E8316AA
:101B90004E088312A60083164F088312A700303028
:101BA000A200A3018A01F8208316EC008312250805
:101BB0008316ED006C088312A00083166D08831253
:101BC000A1000A30A200A3018A01DC208316CE0006
:101BD000831221088316CF0066088312A60083169D
:101BE00067088312A7003030A200A3018A01F82001
:101BF0008316EC00831225088316ED006C0883120F
:101C0000A00083166D088312A1000A30A200A30170
:101C10008A01DC208316EC00831221088316ED0074
:101C20006C088312A60083166D088312A7000B3080
:101C3000A200A3018A01F8208316E600831225087A
:101C40008316E700FE3083128A01202001308A01CA
:101C5000202020308A01202056308A012020423066
:101C60008A01202020308A012020831667088312F1
:101C7000A5008316660883128A01022020308A019B
:101C8000202020308A0120206D308A01202056300B
:101C90008A012020FE308A012020C0308A012020C5
:101CA00020308A01202056308A01202031308A01DC
:101CB000202020308A01202083164F088312A5009F
:101CC00083164E0883128A01022020308A012020C8
:101CD00020308A0120206D308A01202056308A0170
:101CE000202083166B088312A30083166A088312D0
:101CF0008A01A3208A014A2B05308A016E208316AF
:101D0000E800831221088316E900831203170310E9
:101D10002A0D103E8400831783160313680883126C
:101D20008000840A831669088312800083130630BA
:101D30008A016E208316E800831221088316E900C9
:101D40008312031703102A0DD03E84008316031359
:101D5000680883128000840A831669088312800051
:101D600004308A016E208316E8008312210883164E
:101D7000E9008312031703102A0D683E84008316BE
:101D80000313680883128000840A8316690883128B
:101D9000800003308A016E208316E8008312210838
:101DA0008316E9008312031703102A0D503E8400A6
:101DB00083160313680883128000840A8316690857
:101DC0008312800002308A016E208316E80083129D
:101DD00021088316E9008312031703102A0D383EE9
:101DE000840083160313680883128000840A831614
:101DF00069088312800000308A016E208316E80093
:101E0000831221088316E9008312031703102A0D99
:101E1000A03E840083160313680883128000840A9E
:101E2000831669088312800001308A016E208316B0
:101E3000E800831221088316E900831203170310B8
:101E40002A0DB83E840083160313680883128000AD
:0C1E5000840A83166908831280000800D1
:02400E00753FFC
:024202000000BA
:00000001FF
