:1000000094280F39A0000310A00DA00D1F08E0399F
:10001000200401389F001330A100883029209F144C
:100020009F181028A1011E088F288001840AFF3E16
:10003000031D15288F28A301A200FF30A207031C6F
:10004000A307031C8F280330A100DF3029201D28BF
:10005000A101E83EA000A109FC30031C3228A00742
:1000600003182F28A0076400A10F2F282018382874
:10007000A01C3C2800003C280800A20003304628B1
:10008000A20001304628A20006304628A800230816
:100090002102031D4D2822082002043003180130DC
:1000A000031902302805031DFF308F280038031D77
:1000B000FF300405031DFF308F28A501A401103077
:1000C000A600210DA40DA50D2208A4022308031CDF
:1000D000230FA502031873282208A4072308031876
:1000E000230FA5070310A00DA10DA60B6128200862
:1000F0008F281030A800A101A001A70CA60C031C9A
:1001000087282208A00723080318230FA107A10CA2
:10011000A00CA50CA40CA80B7D2824088F28831301
:100120000313831264000800FF23831690008312D8
:100130008316803081008312073099009F01831657
:1001400003309F009501960183128B01831685125F
:10015000051105128312051283160512831205116B
:1001600083160511831285128316851283120512D8
:10017000831605122030840040308312152003308E
:10018000A300E8301C2070215208A0005308A100F1
:100190005108A30050083D20031DD92805168316D9
:1001A0000512C83083121B20051283160512831214
:1001B000EF28D80164000A3058020318EB2805150F
:1001C00083160511643083121B2005118316051157
:1001D0008312D80FDA2805168316051283126400DD
:1001E0005508003C031D20295008A0005108A1001B
:1001F0003530A300E8304020CC000301051DFF305E
:10020000CE004C0884004E085620CE00CF0064007B
:100210004E084F0403191F29D80164000A30580200
:1002200003181E29051583160511643083121B203F
:100230000511831605118312D80F0D29D40A3E2902
:100240005008A0005108A1003830A30040304320DE
:10025000031D3E29D80164000A30580203183C29C6
:10026000051183160511643083121B2005158316B2
:1002700005118312D80F2B29D401D5015008A000F5
:100280005108A1002E30A300E0303D20031D4C2971
:1002900005118316051183125008A0005108A10012
:1002A0002730A30010303D20031D5A2985128316E4
:1002B000851283125008A0005108A1002A30A30023
:1002C000F8304320031D6829851683168512831292
:1002D000640002305402031C6F290130D500C3288A
:1002E000D60164000A3056020318042A00300120A7
:1002F000B80038083907CC00CD01CD0D3A08CC073D
:100300000318CD0A3B08CC070318CD0A3C08CC07DC
:100310000318CD0A3D08CC070318CD0A3E08CC07C8
:100320000318CD0A3F08CC070318CD0A4008CC07B4
:100330000318CD0A4108CC070318CD0A4C08A000C9
:100340004D08A1000A30A200A3015D20D2002108BF
:10035000D30001305207CC0053080318013ECD00F2
:100360004C08A6004D08A700C430A200A3017920C4
:10037000D2002508D30001300120C2004208430703
:10038000CC00CD01CD0D4408CC070318CD0A45089B
:10039000CC070318CD0A4608CC070318CD0A470836
:1003A000CC070318CD0A4808CC070318CD0A490822
:1003B000CC070318CD0A4A08CC070318CD0A4B080E
:1003C000CC070318CD0A4C08A0004D08A1000A3044
:1003D000A200A3015D20D0002108D1000130500708
:1003E000CC0051080318013ECD004C08A6004D0872
:1003F000A700C430A200A3017920D0002508D100B5
:0A04000064301B20D60F712908009C
:02400E00DC3F95
:00000001FF
